:100000000C945A000C9477000C9477000C947700B1
:100010000C9477000C9477000C9477000C94770084
:100020000C9477000C9477000C9477000C94770074
:100030000C9477000C9477000C9477000C94770064
:100040000C9477000C9477000C9477000C94770054
:100050000C9477000C9477000C9477000C94770044
:100060000C9477000C9477000C9477000C94770034
:100070000C9477000C9477000C9477000C94770024
:100080000C9477000C9477000C9477000C94770014
:100090000C9477000C9477000C9477000C94770004
:1000A0000C9477000C9477000C9477000C947700F4
:1000B0000C94770011241FBECFEFD8E0DEBFCDBF78
:1000C00011E0A0E0B1E0E4EBFAE002C005900D928F
:1000D000A435B107D9F721E0A4E5B1E001C01D9234
:1000E000A237B207E1F70E94FE010C9458050C9468
:1000F000000080E480937C0087E880937A0010926F
:100100007B000895ECE7F0E09081907F90839081F0
:10011000892B8083EAE7F0E080818064808380819E
:1001200084FFFDCF809178002091790090E0922BA0
:1001300008952798089583B18095881F8827881F80
:10014000089582E084BD83E085BD8AEF87BD089570
:10015000AB01BC0116BC80E090E0DC010CC0A999A9
:1001600006C084179507A607B707C8F30895019638
:10017000A11DB11DA99A481759076A077B0719F0F5
:10018000A99BEDCFF4CF0895E0ECF0E0908195FFCE
:10019000FDCF8093C60008951092C00028E0209300
:1001A000C10026E02093C200DC01CB01880F991F1B
:1001B000AA1FBB1F880F991FAA1FBB1F9C01AD015F
:1001C000220F331F441F551F220F331F441F551F7B
:1001D00060E074E284EF90E00E942802215031092F
:1001E0003093C5002093C40080E091E090936F01AC
:1001F00080936E01089590936B0180936A01089536
:10020000EF92FF920F931F93CF93DF938091690139
:10021000823001F128F4882349F0813059F082C0FE
:10022000833081F1843009F446C07CC081E0809342
:1002300069017AC0E0916A01F0916B010480F58157
:10024000E02D68E873E180E090E0099582E080931A
:1002500069016AC0C5E5D1E009E611E0E0916A01F3
:10026000F0916B010190F081E02D80E00995880FFD
:10027000991F89939993C017D10781F783E08093E1
:10028000690152C0E0916A01F0916B010280F38133
:10029000E02D099580935401E0916A01F0916B0182
:1002A0000680F781E02D4AE065E571E0099584E07C
:1002B0008093690139C086E191E00E9460028091DB
:1002C00054011F928F938EE191E09F938F930E9430
:1002D0004A0205E511E00F900F900F900F90C0E0DB
:1002E000D0E00F2EFEE2EF2EF1E0FF2EF02DF80110
:1002F000808191810E5F1F4F9F938F93DF93CF93E8
:10030000FF92EF920E944A0221960F900F900F9059
:100310000F900F900F90CA30D10549F781E080937C
:10032000690102C010926901DF91CF911F910F9175
:10033000FF90EF900895CF92DF92EF92FF920F938C
:100340001F93CF93DF934230C0F18B010F2EFEEF4E
:10035000EF2EF02DE40EF12C9FEFE91AF90AC0E020
:10036000D0E0F801A281B3819C2F9E01C190D19071
:100370008F01AC15BD05A8F4F9013196EE0FFF1FF2
:10038000E60FF71FD182C0829150292F30E0F9018A
:10039000EE0FFF1FE60FF71FC080D180AC15BD0523
:1003A00058F3F9013196EE0FFF1FE60FF71FB183E7
:1003B000A0832196CE15DF05A1F6811116C0942FDA
:1003C000969599F0A42FB0E0AA0FBB1FA60FB71FF8
:1003D000FB013E912E914081518111965C934E9389
:1003E000219331938F5F8913F4CFDF91CF911F91C8
:1003F0000F91FF90EF90DF90CF900895CF93DF9310
:10040000CDB7DEB728970FB6F894DEBF0FBECDBFCD
:100410000E9479000E9499000E94A10060E875E2A4
:1004200080E090E00E94CC0088E0EEE0F1E0DE01A8
:10043000119601900D928A95E1F7CE0101960E94E6
:10044000FB008AE391E00E9460020E940001FDCF60
:10045000A1E21A2EAA1BBB1BFD010DC0AA1FBB1FC8
:10046000EE1FFF1FA217B307E407F50720F0A21B3A
:10047000B30BE40BF50B661F771F881F991F1A94A7
:1004800069F760957095809590959B01AC01BD01D1
:10049000CF010895A0E0B0E0E0E5F2E00C94310572
:1004A000AE014B5F5F4FFA0161917191AF01809195
:1004B0006E0190916F010E949002E2E00C944D0554
:1004C0000F931F93CF93DF93E0916E01F0916F0133
:1004D000238121FF1BC08C01D0E0C0E0F801819195
:1004E0008F0160916E0170916F01DB011896ED91A3
:1004F000FC911997882331F00995892B79F3DFEF67
:10050000CFEFECCF8AE00995892B19F08FEF9FEFA1
:1005100002C08D2F9C2FDF91CF911F910F910895D5
:10052000ABE0B0E0E6E9F2E00C9421056C017B0160
:100530008A01FC0117821682838181FFCCC1CE0122
:1005400001963C01F6019381F70193FD859193FF9C
:1005500081917F01882309F4BAC1853239F493FD72
:10056000859193FF81917F01853229F4B60190E056
:100570000E948704E7CF912C212C312CFFE1F31549
:10058000D8F08B3279F038F4803279F08332A1F4EC
:10059000232D20611DC08D3261F0803369F4232D3D
:1005A000216016C0832D8260382EE32DE4603E2E3C
:1005B0002AC0F32DF8601DC037FC2DC020ED280F98
:1005C0002A3040F08E32B9F436FC81C1232D2064EC
:1005D000322E19C036FE06C08AE0989E200D1124E6
:1005E000922E11C0EAE02E9E200D1124222EF32D12
:1005F000F0623F2E08C08C3621F4832D8068382E9F
:1006000002C0883641F4F70193FD859193FF8191F3
:100610007F018111B3CF982F9F7D9554933028F49B
:100620000C5F1F4F9FE399830DC0833631F08337F2
:1006300071F0833509F059C021C0F80180818983A8
:100640000E5F1F4F88248394912C530113C02801FF
:10065000F2E04F0E511CF801A080B18036FE03C0BD
:10066000692D70E002C06FEF7FEFC5010E947C042E
:100670004C018201F32DFF773F2E16C0280122E0A6
:10068000420E511CF801A080B18036FE03C0692DD6
:1006900070E002C06FEF7FEFC5010E9471044C0152
:1006A000F32DF0683F2E820133FC1BC0822D90E0B9
:1006B00088169906B0F4B60180E290E00E948704A3
:1006C0002A94F4CFF50137FC859137FE81915F01C3
:1006D000B60190E00E94870421102A9421E0821A3A
:1006E00091088114910471F7E8C0843611F08936BD
:1006F00041F5F80137FE07C06081718182819381E5
:100700000C5F1F4F08C060817181072E000C880BA1
:10071000990B0E5F1F4FF32DFF763F2E97FF09C0F9
:1007200090958095709561957F4F8F4F9F4FF068A2
:100730003F2E2AE030E0A3010E94C304882E8618D1
:1007400045C0853731F4232D2F7EB22E2AE030E0CC
:1007500025C0932D997FB92E8F36C1F018F48835B6
:1007600079F0B5C0803719F0883721F0B0C0E92F93
:10077000E061BE2EB4FE0DC0FB2DF460BF2E09C09B
:1007800034FE0AC0292F2660B22E06C028E030E0D1
:1007900005C020E130E002C020E132E0F801B7FE00
:1007A00007C060817181828193810C5F1F4F06C0F9
:1007B0006081718180E090E00E5F1F4FA3010E9475
:1007C000C304882E8618FB2DFF773F2E36FE0DC002
:1007D000232D2E7FA22E891458F434FE0BC032FC38
:1007E00009C0832D8E7EA82E05C0B82CA32C03C073
:1007F000B82C01C0B92CA4FE0FC0FE01E80DF11DFC
:100800008081803321F49A2D997EA92E09C0A2FE01
:1008100006C0B394B39404C08A2D867809F0B394CB
:10082000A3FC11C0A0FE06C0B21488F4280C922CC0
:100830009B180EC0B21460F4B60180E290E00E94F2
:100840008704B394F7CFB21418F42B1802C0982C75
:10085000212CA4FE10C0B60180E390E00E94870422
:10086000A2FE17C0A1FC03C088E790E002C088E5A3
:1008700090E0B6010CC08A2D867859F0A1FE02C026
:100880008BE201C080E2A7FC8DE2B60190E00E94FD
:100890008704891438F4B60180E390E00E9487044D
:1008A0009A94F7CF8A94F301E80DF11D8081B60187
:1008B00090E00E9487048110F5CF222009F442CEF7
:1008C000B60180E290E00E9487042A94F6CFF601F8
:1008D0008681978102C08FEF9FEF2B96E2E10C9407
:1008E0003D05FC010590615070400110D8F78095DE
:1008F00090958E0F9F1F0895FC01615070400190EC
:100900000110D8F7809590958E0F9F1F08950F9333
:100910001F93CF93DF93FB01238121FD03C08FEF52
:100920009FEF2CC022FF16C046815781248135815C
:100930004217530744F4A081B1819D012F5F3F4FBF
:10094000318320838C93268137812F5F3F4F3783FC
:10095000268314C08B01EC01FB010084F185E02D9E
:100960000995892BE1F6D80116968D919C911797E0
:10097000019617969C938E931697CE01DF91CF9197
:100980001F910F910895FA01AA27283051F12031C3
:1009900081F1E8946F936E7F6E5F7F4F8F4F9F4F13
:1009A000AF4FB1E03ED0B4E03CD0670F781F891F55
:1009B0009A1FA11D680F791F8A1F911DA11D6A0F23
:1009C000711D811D911DA11D20D009F468943F91D6
:1009D0002AE0269F11243019305D3193DEF6CF01D5
:1009E0000895462F4770405D4193B3E00FD0C9F79B
:1009F000F6CF462F4F70405D4A3318F0495D31FD08
:100A00004052419302D0A9F7EACFB4E0A69597955A
:100A1000879577956795BA95C9F700976105710530
:100A200008959B01AC010A2E06945795479537957A
:100A30002795BA95C9F7620F731F841F951FA01DD4
:100A400008952F923F924F925F926F927F928F9272
:100A50009F92AF92BF92CF92DF92EF92FF920F934D
:100A60001F93CF93DF93CDB7DEB7CA1BDB0B0FB657
:100A7000F894DEBF0FBECDBF09942A883988488814
:100A80005F846E847D848C849B84AA84B984C884AA
:100A9000DF80EE80FD800C811B81AA81B981CE0FA1
:100AA000D11D0FB6F894DEBF0FBECDBFED01089586
:040AB000F894FFCFE8
:100AB4000000000200000000C400000000008200EA
:100AC4009B00A8009B0156616C7565730D00417312
:100AD40063656E64696E673A2025640D0A002575A6
:100AE4003A202575206D760D0A00496E6974696196
:100AF4006C69736174696F6E20636F6D706C65747B
:040B0400650D00007B
:00000001FF
