S013000070726F6A656374436F64652E737265639F
S11300000C9469000C94A9030C94C9030C94860005
S11300100C9486000C9486000C9486000C94860044
S11300200C9486000C9486000C9486000C94860034
S11300300C9486000C9486000C9486000C94860024
S11300400C9486000C9486000C9486000C94860014
S11300500C9486000C9486000C9486000C94860004
S11300600C9486000C9486000C9486000C948600F4
S11300700C9486000C9486000C9486000C948600E4
S11300800C9486000C9486000C9486000C948600D4
S11300900C9486000C9486000C9486000C948600C4
S11300A00C9486000C9486000C9486000C948600B4
S11300B00C94860005A84CCDB2D44EB93836A902AA
S11300C00C50B9918688083CA6AAAA2ABE00000052
S11300D0803F11241FBECFEFD8E0DEBFCDBF11E0BB
S11300E0A0E0B1E0EAEBFAE102C005900D92AE3176
S11300F0B107D9F721E0AEE1B1E001C01D92AC3205
S1130100B207E1F70E948A050C945B0D0C94000081
S1130110CF93DF93CDB7DEB72C970FB6F894DEBF3D
S11301200FBECDBF9A8789877C876B8782E00E9448
S113013061039A83898381E00E946103909325017E
S113014080932401209124013091250189859A8589
S1130150820F931F969587959C838B832B813C817B
S11301608B859C85A901481B590BCA019E838D83ED
S11301702D813E8144E6429FC001439F900D11248E
S11301809E838D8329813A818B859C85A901481B97
S1130190590BCA0198878F838F819885880F991F7F
S11301A082959295907F9827807F982798878F8350
S11301B08F8198852AE030E0B9010E94BC09CB0107
S11301C098878F838D819E819C01990F440B550BD9
S11301D08F819885092E000CAA0BBB0BBC01CD01A5
S11301E00E949809DC01CB018093200190932101A6
S11301F0A0932201B093230100002C960FB6F8942B
S1130200DEBF0FBECDBFDF91CF910895CF93DF93B3
S1130210CDB7DEB72B970FB6F894DEBF0FBECDBFB8
S11302209B878A8781E00E9461039A8389831B826A
S11302301C821D821E821F8224C02A853B858981DF
S11302409A81B9010E9488002B813C814D815E8195
S11302508091200190912101A0912201B09123016C
S1130260820F931FA41FB51F8B839C83AD83BE8312
S113027080912401909125019A8389838F818F5FD6
S11302808F838F818933C8F28B819C81AD81BE813C
S113029028EA3EED40E050E0BC01CD010E94F209A5
S11302A0DA01C90199878887888599852B960FB6C5
S11302B0F894DEBF0FBECDBFDF91CF910895CF93E9
S11302C0DF93CDB7DEB729970FB6F894DEBF0FBE24
S11302D0CDBF9987888719821A821B821C821D824E
S11302E02DC082E00E9461039C0188859985A90143
S11302F0481B590BCA019F838E838E819F819C0169
S1130300990F440B550B8E819F81092E000CAA0B6B
S1130310BB0BBC01CD010E9498099B01AC018981F2
S11303209A81AB81BC81820F931FA41FB51F89835F
S11303309A83AB83BC838D818F5F8D838D81893359
S113034080F289819A81AB81BC8129E330E040E06D
S113035050E0BC01CD010E94D009DA01C9018983B2
S11303609A83AB83BC8369817A818B819C810E944F
S1130370C807DC01CB01BC01CD010E940809DC01E6
S1130380CB01BC01CD010E949907DC01CB0189831B
S11303909A83AB83BC8389819A810E940503CC0133
S11303A0A0E0B0E089839A83AB83BC8389819A817E
S11303B029960FB6F894DEBF0FBECDBFDF91CF9163
S11303C00895AF92BF92CF92DF92EF92FF920F9374
S11303D01F93CF93DF9300D000D01F92CDB7DEB729
S11303E019821A821B821C821D8215C080E00E9421
S11303F06103CC01A0E0B0E029813A814B815C81AA
S1130400820F931FA41FB51F89839A83AB83BC8378
S11304108D818F5F8D838D81853040F389819A81B1
S1130420AB81BC81BC01CD012DEC3CEC4CEC5CEC13
S11304300E941C0AA22EB32EC42ED52EE62EF72E11
S1130440082F192F2A2D3B2D4C2D5D2D6E2D7F2D20
S1130450802F912F00E20E94490AA22EB32EC42EAF
S1130460D52EE62EF72E082F192FD601C501B695E5
S1130470A79597958795B695A79597958795898319
S11304809A83AB83BC8389819A810F900F900F90DC
S11304900F900F90DF91CF911F910F91FF90EF90EC
S11304A0DF90CF90BF90AF900895CF93DF93CDB7F7
S11304B0DEB72E970FB6F894DEBF0FBECDBF0E94F5
S11304C0F203CC01A0E0B0E0BC01CD010E94C8075A
S11304D0DC01CB012FE632E143E858E3BC01CD0156
S11304E00E949508DC01CB0189839A83AB83BC838A
S11304F089819A81AB81BC819C01AD01BC01CD0194
S11305000E942807DC01CB0120ED3FE049E450E4E0
S1130510BC01CD010E949508DC01CB018D839E8333
S1130520AF83B8878D819E81AF81B885BC01CD0131
S11305300E949407DC01CB0189879A87AB87BC872B
S113054020E030E048EC52E469857A858B859C850F
S11305500E949508DC01CB01BC01CD010E949907E2
S1130560DC01CB019E878D878D859E852E960FB6E7
S1130570F894DEBF0FBECDBFDF91CF910895CF9326
S1130580DF93CDB7DEB729970FB6F894DEBF0FBE61
S1130590CDBF998788871A8219821B8222C081E085
S11305A00E9461039D838C83288539858C819D817C
S11305B0A901481B590BCA0199231CF491958195F3
S11305C091099F838E832E813F8189819A8182172D
S11305D0930720F48E819F819A8389838B818F5F17
S11305E08B838B818933D8F229813A8188859985D7
S11305F0820F931F0E94200329960FB6F894DEBF42
S11306000FBECDBFDF91CF910895CF93DF9300D07C
S113061000D0CDB7DEB79C838B832B813C8142E233
S1130620429FC001439F900D11249A83898389813D
S11306309A810F900F900F900F90DF91CF910895B2
S1130640CF93DF9300D000D0CDB7DEB79C838B83EC
S11306508B819C81CC01A0E0B0E0072E7AE0880F6A
S1130660991FAA1FBB1F7A95D1F7702D2AE131E09B
S113067040E050E0BC01CD010E94D009DA01C9017B
S11306809A83898389819A810F900F900F900F909C
S1130690DF91CF910895CF93DF93CDB7DEB78CE789
S11306A090E020E4FC0120838AE790E027E8FC0145
S11306B020838BE790E0FC0110820000DF91CF9152
S11306C00895CF93DF9300D01F92CDB7DEB78B830D
S11306D08CE790E02CE730E0F9012081207FFC01D9
S11306E020838CE790E02CE730E0F90130812B8106
S11306F0232BFC0120838AE790E02AE730E0F9010C
S113070020812064FC01208300008AE790E0FC0142
S11307108081882F90E080719927892BB1F388E735
S113072090E0FC018081282F30E089E790E0FC0113
S11307308081882F90E0982F8827822B932B9A838F
S1130740898389819A810F900F900F90DF91CF91C7
S113075008951F920F9200905F000F9211248F93BF
S11307609F93EF93FF93CF93DF93CDB7DEB784E8E6
S113077090E0FC01118210820000DF91CF91FF9183
S1130780EF919F918F910F9000925F000F901F90B7
S113079018951F920F9200905F000F9211248F936F
S11307A09F93EF93FF93CF93DF93CDB7DEB784E8A6
S11307B090E0FC018081918190931F0180931E0140
S11307C084E890E0FC01118210820000DF91CF9157
S11307D0FF91EF919F918F910F9000925F000F9086
S11307E01F901895CF93DF93CDB7DEB780911E018C
S11307F090911F01DF91CF910895CF93DF93CDB7EF
S1130800DEB784E490E0FC01108285E490E023E00C
S1130810FC01208387E490E02AEFFC0120830000A0
S1130820DF91CF910895CF93DF931F92CDB7DEB7B9
S113083089838DE390E02DE330E0F9012081622F7C
S11308402981422F50E021E030E002C0220F331F03
S11308504A95E2F7262BFC01208389E690E029E6FD
S113086030E0F9012081207FFC01208389E690E0BB
S113087029E630E0F90120812160FC01208389E62A
S113088090E029E630E0F90120812260FC01208318
S113089089E690E029E630E0F90120812460FC013A
S11308A0208389E690E029E630E0F9012081286080
S11308B0FC01208300000F90DF91CF910895CF9326
S11308C0DF93CDB7DEB780E890E0FC01108281E8C9
S11308D090E021E0FC0120830000DF91CF91089596
S11308E0CF93DF93CDB7DEB728970FB6F894DEBF6A
S11308F00FBECDBF6D837E838F83988719821A8242
S11309001B821C8286E490E0FC0110821EC085E3F9
S113091090E0FC018081882F90E082709927892BD8
S1130920A1F089819A81AB81BC810196A11DB11D81
S113093089839A83AB83BC8385E390E025E330E02D
S1130940F90120812260FC01208329813A814B81B5
S11309505C818D819E81AF81B885281739074A074C
S11309605B07A8F2000028960FB6F894DEBF0FBE0E
S1130970CDBFDF91CF9108950F931F93CF93DF9352
S113098000D000D0CDB7DEB769837A838B839C8394
S113099080EC90E0FC01108281EC90E028E0FC0106
S11309A0208382EC90E026E0FC01208304EC10E03C
S11309B089819A81AB81BC81880F991FAA1FBB1FB3
S11309C0880F991FAA1FBB1F880F991FAA1FBB1F3F
S11309D0880F991FAA1FBB1F9C01AD0180E094E200
S11309E0A4EFB0E0BC01CD010E94D009DA01C90135
S11309F00197F8019183808380E091E0909329012D
S1130A008093280100000F900F900F900F90DF91BA
S1130A10CF911F910F910895CF93DF931F92CDB77C
S1130A20DEB78983000080EC90E0FC018081882F90
S1130A3090E080729927892BB1F386EC90E02981AC
S1130A40FC01208300000F90DF91CF910895CF9394
S1130A50DF93CDB7DEB72A970FB6F894DEBF0FBE8B
S1130A60CDBF1A8219821C821B821E821D821886A7
S1130A701F820E94E1019A87898780910E01882F45
S1130A8090E083309105D9F08430910534F48130BD
S1130A90910549F0029769F02FC084309105A9F0BF
S1130AA00597F9F029C089859A850E94BF029A8327
S1130AB0898389859A850E945F019C838B838985BC
S1130AC09A850E9406019E838D8378946EE170E07E
S1130AD080E090E00E947004F8940E945502988788
S1130AE08F832F8138854D815E816B817C818981E3
S1130AF09A810E94FB0604C081E080930E010000ED
S1130B0000002A960FB6F894DEBF0FBECDBFDF916A
S1130B10CF910895CF93DF93CDB7DEB70E944B03F7
S1130B200E94FD030E945F0480E00E94130481E0A0
S1130B300E94130460E875E280E090E00E94BC0427
S1130B400E942705FDCFCF93DF9300D000D0CDB70F
S1130B50DEB79C838B838AE090E09A8389830DC0FF
S1130B6089819A81880F991F9C01220F331F220FBC
S1130B70331F820F931F9A83898329813A818B8142
S1130B809C81B9010E94A809CB01892B49F789816D
S1130B909A812AE030E0B9010E94BC09CB019A8312
S1130BA0898389819A81092E000CAA0BBB0BBC0195
S1130BB0CD010F900F900F900F90DF91CF9108957A
S1130BC0CF93DF93CDB7DEB78AE00E940C05000017
S1130BD0DF91CF910895CF93DF93CDB7DEB72A97F6
S1130BE00FB6F894DEBF0FBECDBF8F8379876887B9
S1130BF04A87888599850E94A305DC01CB018983F6
S1130C009A83AB83BC831D823CC09D818F819817DE
S1130C1019F48EE20E940C0588859985CC01A0E028
S1130C20B0E029813A814B815C81BC01CD010E94F5
S1130C30D009DA01C9012AE030E040E050E0BC010B
S1130C40CD010E94D009DC01CB018E838E81805DB1
S1130C508E838E810E940C0589819A81AB81BC812F
S1130C602AE030E040E050E0BC01CD010E94D00910
S1130C70DA01C90189839A83AB83BC838D818F5F39
S1130C808D839D818A85981708F4BFCF00002A962A
S1130C900FB6F894DEBF0FBECDBFDF91CF9108959C
S1130CA0CF93DF9300D0CDB7DEB79A8389838FE0EB
S1130CB091E0892F8F938FE091E08F9382E191E00F
S1130CC0892F8F9382E191E08F930E947D0A0F9088
S1130CD00F900F900F9089819A8144E0BC0182E0CB
S1130CE00E94EB050E94E00500000F900F90DF9139
S1130CF0CF910895CF93DF9300D0CDB7DEB79A8319
S1130D00898385E191E0892F8F9385E191E08F9329
S1130D1082E191E0892F8F9382E191E08F930E9489
S1130D207D0A0F900F900F900F9089819A8144E073
S1130D30BC0183E00E94EB050E94E00500000F90D7
S1130D400F90DF91CF910895CF93DF9300D0CDB76B
S1130D50DEB79A83898388E191E0892F8F9388E1B4
S1130D6091E08F9382E191E0892F8F9382E191E06A
S1130D708F930E947D0A0F900F900F900F9089819E
S1130D809A8144E0BC0181E00E94EB050E94E005E9
S1130D9000000F900F90DF91CF910895CF93DF93D0
S1130DA000D0CDB7DEB79A8389838BE191E0892F98
S1130DB08F938BE191E08F9382E191E0892F8F9360
S1130DC082E191E08F930E947D0A0F900F900F9023
S1130DD00F9080E30E940C0589819A8143E0BC0155
S1130DE080E00E94EB050E94E00500000F900F9048
S1130DF0DF91CF910895CF93DF93CDB7DEB72897D6
S1130E000FB6F894DEBF0FBECDBF9A8389837C836F
S1130E106B835E834D8338872F8389819A810E94F7
S1130E2050068B819C810E947A068D819E810E944E
S1130E30A4068F8198850E94CE06000028960FB6DE
S1130E40F894DEBF0FBECDBFDF91CF910895505807
S1130E50BB27AA270E943F070C9447080E940E084C
S1130E6038F00E94150820F039F49F3F19F426F455
S1130E700C940B080EF4E095E7FB0C940508E92F9D
S1130E800E946C0858F3BA17620773078407950722
S1130E9020F079F4A6F50C948E080EF4E0950B2E50
S1130EA0BA2FA02D0B01B90190010C01CA01A001B8
S1130EB01124FF27591B99F0593F50F4503E68F113
S1130EC01A16F040A22F232F342F4427585FF3CF54
S1130ED0469537952795A795F0405395C9F77EF425
S1130EE01F16BA0B620B730B840BBAF09150A1F06E
S1130EF0FF0FBB1F661F771F881FC2F70EC0BA0FF4
S1130F00621F731F841F48F4879577956795B7957B
S1130F10F7959E3F08F0B0CF9395880F08F0992776
S1130F20EE0F9795879508950E941E08E3950C94FB
S1130F3058080E94740888F09F5798F0B92F992791
S1130F40B751B0F0E1F0660F771F881F991F1AF0B0
S1130F50BA95C9F714C0B13091F00E948E08B1E07F
S1130F6008950C948E08672F782F8827B85F39F07E
S1130F70B93FCCF3869577956795B395D9F73EF449
S1130F8090958095709561957F4F8F4F9F4F0895F1
S1130F90E89409C097FB3EF490958095709561950F
S1130FA07F4F8F4F9F4F9923A9F0F92F96E9BB27C5
S1130FB09395F695879577956795B795F111F8CF41
S1130FC0FAF4BB0F11F460FF1BC06F5F7F4F8F4FAC
S1130FD09F4F16C0882311F096E911C0772321F0A2
S1130FE09EE8872F762F05C0662371F096E8862F3A
S1130FF070E060E02AF09A95660F771F881FDAF791
S1131000880F9695879597F9089597F99F6780E8D3
S113101070E060E008959FEF80EC089500240A9446
S11310201616170618060906089500240A941216BF
S113103013061406050608950C940B080E94740800
S1131040D8F3E894E0E0BB279F57F0F02AED3FE0A7
S113105049EC06C0EE0FBB0F661F771F881F28F0F0
S1131060B23A62077307840728F0B25A620B730B13
S1131070840BE3959A9572F7803830F49A95BB0FF8
S1131080661F771F881FD2F790480C944A09092ECF
S11310900394000C11F4882352F0BB0F40F4BF2BCF
S11310A011F460FF04C06F5F7F4F8F4F9F4F08950F
S11310B0EF93E0FF07C0A2EA2AED3FE049EC5FEBC3
S11310C00E943F070E9447080F90039401FC905828
S11310D0E4EBF0E00C945D0957FD9058440F551F64
S11310E059F05F3F71F04795880F97FB991F61F0A6
S11310F09F3F79F087950895121613061406551F1D
S1131100F2CF4695F1DF08C0161617061806991F88
S1131110F1CF86957105610508940895E894BB277D
S113112066277727CB0197F908950E94A8080C94A5
S113113047080E940E0838F00E94150820F09523F5
S113114011F00C9405080C940B0811240C948F08CE
S11311500E946C0870F3959FC1F3950F50E0551FE2
S1131160629FF001729FBB27F00DB11D639FAA27F8
S1131170F00DB11DAA1F649F6627B00DA11D661F47
S1131180829F2227B00DA11D621F739FB00DA11D68
S1131190621F839FA00D611D221F749F3327A00D22
S11311A0611D231F849F600D211D822F762F6A2FBE
S11311B011249F5750409AF0F1F088234AF0EE0F23
S11311C0FF1FBB1F661F771F881F91505040A9F750
S11311D09E3F510580F00C9405080C948F085F3FE6
S11311E0E4F3983ED4F3869577956795B795F7958C
S11311F0E7959F5FC1F7FE2B880F911D9695879504
S113120097F9089519F416F40C940B080C944809F2
S11312100E947408B8F39923C9F3B6F39F57550B8A
S113122087FF0E9456090024A0E640EA90018058F6
S11312305695979528F4805C660F771F881F20F0D9
S113124026173707480730F4621B730B840B2029D9
S113125031294A2BA69517940794202531254A272E
S113126058F7660F771F881F20F02617370748079F
S113127030F4620B730B840B200D311D411DA095BE
S113128081F7B901842F9158880F96958795089511
S11312909F3F31F0915020F4879577956795B795E6
S11312A0880F911D9695879597F908959150504010
S11312B0660F771F881FD2F708959F938F937F93AC
S11312C06F93FF93EF939B01AC010E949508EF91FC
S11312D0FF910E9471092F913F914F915F910C945E
S11312E09508DF93CF931F930F93FF92EF92DF92B2
S11312F07B018C01689406C0DA2EEF010E94A808D5
S1131300FE01E894A5912591359145915591A6F357
S1131310EF010E943F07FE019701A801DA9469F7E3
S1131320DF90EF90FF900F911F91CF91DF9108957F
S1131330DB018F939F930E94110ABF91AF91A29FEB
S1131340800D911DA39F900DB29F900D11240895BF
S1131350AA1BBB1B51E107C0AA1FBB1FA617B707D7
S113136010F0A61BB70B881F991F5A95A9F78095F3
S11313709095BC01CD01089597FB072E16F40094B7
S113138007D077FD09D00E94A80907FC05D03EF4D8
S1131390909581959F4F0895709561957F4F08951D
S11313A0A1E21A2EAA1BBB1BFD010DC0AA1FBB1F65
S11313B0EE1FFF1FA217B307E407F50720F0A21BD7
S11313C0B30BE40BF50B661F771F881F991F1A9444
S11313D069F760957095809590959B01AC01BD016E
S11313E0CF010895052E97FB1EF400940E94090A6C
S11313F057FD07D00E94D00907FC03D04EF40C948B
S1131400090A50954095309521953F4F4F4F5F4FB6
S1131410089590958095709561957F4F8F4F9F4F5C
S113142008950E94650AA59F900DB49F900DA49FF6
S1131430800D911D11240895E894DF93CF93FC014E
S1131440DB010E94650A7F936F93E9019A01AC0165
S1131450BF93AF933F932F93DF010E94650A26F455
S11314606C1B7D0B820B930B9E01EB01FC010E9414
S1131470740AAF91BF912F913F910E94740ABE01EB
S1131480CF01F9012F913F91CF91DF91089597FBFF
S113149010F8169400080F93083098F00850232F82
S11314A0342F452F562F672F782F892F902DF4CF67
S11314B005949795879577956795579547953795AB
S11314C027950A95AAF70F910895A29FB001B39F9B
S11314D0C001A39F700D811D1124911DB29F700D39
S11314E0811D1124911D08950E94650A460F571FFE
S11314F0C81FD91F08F431960895A0E0B0E0E3E8CE
S1131500FAE00C94340DAE014B5F5F4FFA01619128
S11315107191AF0180912801909129010E94930A51
S1131520E2E00C94500DABE0B0E0E9E9FAE00C9491
S1131530240D6C017B018A01FC01178216828381D0
S113154081FFCCC1CE0101963C01F6019381F701E4
S113155093FD859193FF81917F01882309F4BAC19A
S1131560853239F493FD859193FF81917F01853212
S113157029F4B60190E00E948A0CE7CF912C212C2B
S1131580312CFFE1F315D8F08B3279F038F4803246
S113159079F08332A1F4232D20611DC08D3261F0D6
S11315A0803369F4232D216016C0832D8260382E88
S11315B0E32DE4603E2E2AC0F32DF8601DC037FCF5
S11315C02DC020ED280F2A3040F08E32B9F436FCBD
S11315D081C1232D2064322E19C036FE06C08AE054
S11315E0989E200D1124922E11C0EAE02E9E200D0B
S11315F01124222EF32DF0623F2E08C08C3621F4E4
S1131600832D8068382E02C0883641F4F70193FD9B
S1131610859193FF81917F018111B3CF982F9F7D95
S11316209554933028F40C5F1F4F9FE399830DC0AA
S1131630833631F0833771F0833509F059C021C006
S1131640F801808189830E5F1F4F88248394912C35
S1131650530113C02801F2E04F0E511CF801A08081
S1131660B18036FE03C0692D70E002C06FEF7FEFDA
S1131670C5010E947F0C4C018201F32DFF773F2EA0
S113168016C0280122E0420E511CF801A080B1804E
S113169036FE03C0692D70E002C06FEF7FEFC50115
S11316A00E94740C4C01F32DF0683F2E820133FC30
S11316B01BC0822D90E088169906B0F4B60180E232
S11316C090E00E948A0C2A94F4CFF50137FC8591AE
S11316D037FE81915F01B60190E00E948A0C2110CF
S11316E02A9421E0821A91088114910471F7E8C0C8
S11316F0843611F0893641F5F80137FE07C0608160
S11317007181828193810C5F1F4F08C06081718158
S1131710072E000C880B990B0E5F1F4FF32DFF76DD
S11317203F2E97FF09C090958095709561957F4FE6
S11317308F4F9F4FF0683F2E2AE030E0A3010E94B4
S1131740C60C882E861845C0853731F4232D2F7E8C
S1131750B22E2AE030E025C0932D997FB92E8F3622
S1131760C1F018F4883579F0B5C0803719F088379E
S113177021F0B0C0E92FE061BE2EB4FE0DC0FB2DF8
S1131780F460BF2E09C034FE0AC0292F2660B22E91
S113179006C028E030E005C020E130E002C020E1CE
S11317A032E0F801B7FE07C06081718182819381C4
S11317B00C5F1F4F06C06081718180E090E00E5F76
S11317C01F4FA3010E94C60C882E8618FB2DFF779D
S11317D03F2E36FE0DC0232D2E7FA22E891458F4E1
S11317E034FE0BC032FC09C0832D8E7EA82E05C0AA
S11317F0B82CA32C03C0B82C01C0B92CA4FE0FC074
S1131800FE01E80DF11D8081803321F49A2D997E2B
S1131810A92E09C0A2FE06C0B394B39404C08A2DB5
S1131820867809F0B394A3FC11C0A0FE06C0B214DC
S113183088F4280C922C9B180EC0B21460F4B601E4
S113184080E290E00E948A0CB394F7CFB21418F4AB
S11318502B1802C0982C212CA4FE10C0B60180E3E2
S113186090E00E948A0CA2FE17C0A1FC03C088E786
S113187090E002C088E590E0B6010CC08A2D86781D
S113188059F0A1FE02C08BE201C080E2A7FC8DE208
S1131890B60190E00E948A0C891438F4B60180E302
S11318A090E00E948A0C9A94F7CF8A94F301E80D91
S11318B0F11D8081B60190E00E948A0C8110F5CF61
S11318C0222009F442CEB60180E290E00E948A0C04
S11318D02A94F6CFF6018681978102C08FEF9FEF9D
S11318E02B96E2E10C94400DFC0105906150704090
S11318F00110D8F7809590958E0F9F1F0895FC01D5
S11319006150704001900110D8F7809590958E0F2A
S11319109F1F08950F931F93CF93DF93FB012381A0
S113192021FD03C08FEF9FEF2CC022FF16C046811C
S11319305781248135814217530744F4A081B18132
S11319409D012F5F3F4F318320838C932681378104
S11319502F5F3F4F3783268314C08B01EC01FB01BB
S11319600084F185E02D0995892BE1F6D8011696BE
S11319708D919C911797019617969C938E93169729
S1131980CE01DF91CF911F910F910895FA01AA27FB
S1131990283051F1203181F1E8946F936E7F6E5FAE
S11319A07F4F8F4F9F4FAF4FB1E03ED0B4E03CD05C
S11319B0670F781F891F9A1FA11D680F791F8A1F3F
S11319C0911DA11D6A0F711D811D911DA11D20D0A6
S11319D009F468943F912AE0269F11243019305D60
S11319E03193DEF6CF010895462F4770405D419351
S11319F0B3E00FD0C9F7F6CF462F4F70405D4A339E
S1131A0018F0495D31FD4052419302D0A9F7EACF65
S1131A10B4E0A6959795879577956795BA95C9F794
S1131A2000976105710508959B01AC010A2E069487
S1131A305795479537952795BA95C9F7620F731F40
S1131A40841F951FA01D08952F923F924F925F927D
S1131A506F927F928F929F92AF92BF92CF92DF92BA
S1131A60EF92FF920F931F93CF93DF93CDB7DEB71F
S1131A70CA1BDB0B0FB6F894DEBF0FBECDBF0994B3
S1131A802A88398848885F846E847D848C849B840A
S1131A90AA84B984C884DF80EE80FD800C811B8118
S1131AA0AA81B981CE0FD11D0FB6F894DEBF0FBE47
S10D1AB0CDBFED010895F894FFCFB7
S1131ABA00000002000000000C05000000000156AE
S1111ACA3D00257300493D00503D00463D009F
S9030000FC
