:100000000C945A000C946F000C946F000C946F00C9
:100010000C946F000C946F000C946F000C946F00A4
:100020000C946F000C946F000C946F000C946F0094
:100030000C946F000C946F000C946F000C946F0084
:100040000C946F000C946F000C946F000C946F0074
:100050000C946F000C946F000C946F000C946F0064
:100060000C946F000C946F000C946F000C946F0054
:100070000C946F000C946F000C946F000C946F0044
:100080000C946F000C946F000C946F000C946F0034
:100090000C946F000C946F000C946F000C946F0024
:1000A0000C946F000C946F000C946F000C946F0014
:1000B0000C946F0011241FBECFEFD8E0DEBFCDBF80
:1000C00011E0A0E0B1E0E4E6F2E002C005900D929C
:1000D000AC37B107D9F70E9471000C9430010C9431
:1000E0000000CF93DF9300D000D000D0CDB7DEB7B3
:1000F00087E60E94CC001A82198248C089819A81C1
:10010000880F991F80509F4FFC01808191819E83B1
:100110008D8384E690E09C838B8324C08D819E81B7
:100120002B813C81B9010E940801CB01892B81F010
:100130008D819E812B813C81B9010E940801CB01F8
:100140002AE030E0B9010E940801805D0E94ED00C4
:100150008B819C812AE030E0B9010E940801CB012B
:100160009C838B838B819C8118161906BCF2898134
:100170009A81CD9731F08CE20E94ED0080E20E94DE
:10018000ED0089819A8101969A83898389819A8178
:10019000CE970CF4B3CFFFCFCF93DF931F92CDB7A1
:1001A000DEB7898380EC90E0FC01108281EC90E066
:1001B00028E6FC01208382EC90E026E0FC0120830D
:1001C00084EC90E02981222F30E0FC0131832083F0
:1001D00000000F90DF91CF910895CF93DF931F928E
:1001E000CDB7DEB78983000080EC90E0FC01808110
:1001F000882F90E080729927892BB1F386EC90E0EC
:100200002981FC01208300000F90DF91CF91089598
:1002100097FB072E16F4009407D077FD09D00E94B3
:100220001C0107FC05D03EF4909581959F4F0895E1
:10023000709561957F4F0895AA1BBB1B51E107C0C4
:10024000AA1FBB1FA617B70710F0A61BB70B881F66
:10025000991F5A95A9F780959095BC01CD010895F5
:04026000F894FFCF40
:1002640002000300050007000B000D00110013003D
:1002740017001D001F00250029002B002F0035004A
:100284003B003D004300470049004F005300590024
:100294006100650067006B006D0071007F008300E2
:1002A40089008B00950097009D00A300A700AD0076
:1002B400B300B500BF00C100C500C700D300DF0014
:1002C400E300E500E900EF00F100FB000101070194
:0C02D4000D010F01150119011B0125018E
:00000001FF
